:020000040800F2
:1000000060EA01209D010008511100084911000813
:100010004D110008A9020008111C00080000000092
:100020000000000000000000000000005511000862
:10003000AD02000800000000531100087113000811
:10004000B7010008B7010008B7010008B7010008B0
:10005000B7010008B7010008ED020008B701000869
:1000600005030008B7010008B7010008B701000840
:10007000B7010008B7010008B7010008B701000880
:10008000B7010008B7010008B7010008B701000870
:10009000B7010008B7010008B7010008B701000860
:1000A000B7010008B7010008B7010008B701000850
:1000B000B7010008B7010008B7010008B701000840
:1000C000B7010008B7010008B7010008B701000830
:1000D000B7010008B7010008B7010008B701000820
:1000E000B7010008B7010008B7010008B701000810
:1000F000B7010008B7010008B7010008B701000800
:10010000B7010008B70100089D140008B7010008F6
:10011000B7010008B7010008B7010008B7010008DF
:10012000B7010008B7010008B7010008B7010008CF
:10013000B7010008B7010008B7010008B7010008BF
:10014000B7010008B7010008B7010008B7010008AF
:10015000B7010008B7010008B7010008B70100089F
:10016000B7010008B7010008B7010008B70100088F
:10017000B7010008B7010008B7010008000000003F
:10018000B7010008B7010008DFF80CD000F07AF8DA
:10019000004800476B1C000860EA012006488047C1
:1001A00006480047FEE7FEE7FEE7FEE7FEE7FEE75C
:1001B000FEE7FEE7FEE7FEE73914000889010008C4
:1001C0002DE9F05F0546002092469B46884606468C
:1001D000814640241BE0284641464746224600F01F
:1001E00041F853465A46C01A914110D31146184659
:1001F000224600F028F82D1A67EB01084F462246E8
:100200000120002100F01FF817EB00094E41201ECD
:10021000A4F10104DFDC484631462A464346BDE8E6
:10022000F09FD2B201E000F8012B491EFBD27047CB
:100230000022F6E710B513460A4604461946FFF7B2
:10024000F0FF204610BD202A04DB203A00FA02F11C
:10025000002070479140C2F1200320FA03F31943B4
:1002600090407047202A04DB203A21FA02F0002156
:10027000704721FA02F3D040C2F1200291400843B6
:1002800019467047064C074D06E0E06840F0010350
:1002900094E8070098471034AC42F6D3FFF778FF94
:1002A000981C0008B81C000800BFFEE7704700005B
:1002B00010B50C480C4908604FF4E130486000214B
:1002C00009488160C160016181610C21416100F0D8
:1002D000A9FE05480068C06840F02000024909688E
:1002E000C86010BD00100140A0E40120044800686F
:1002F00000F0010010B101200149086070470000C2
:10030000143C01400448006800F0040010B10420CF
:100310000149086070470000143C014000B587B0F7
:10032000142102A8FFF784FF00BF002001901A48A3
:10033000006840F00400184908600846006800F0B2
:100340000400019000BF00BF00BF002001900846DC
:10035000006840F0040008600846006800F00400EF
:10036000019000BF00BF12200390012004900220E2
:100370000590402002900220069002A9074800F054
:1003800015F8802002900220069002A9034800F090
:100390000DF807B000BD00003038024000080240F0
:1003A00010B5FFF7BBFF01F0FBF810BDF8B5024632
:1003B0000B460025002400200021DCE0012606FA7F
:1003C00001F51E6806EA0504AC4273D15E68022E90
:1003D00002D05E68122E13D1CF0802F1200656F823
:1003E00027004E07F70E0F26BE40B0434F07FF0E03
:1003F0001E69BE403043CF0802F1200646F82700B0
:1004000010684F000326BE40B0431E7906F0030675
:100410004F00BE40304310605E68012E08D05E6819
:10042000022E05D05E68112E02D05E68122E13D106
:1004300090684F000326BE40B0434F00DE68BE40C8
:1004400030439060506801268E40B0431E79C6F359
:1004500000168E4030435060D0684F000326BE40E7
:10046000B0434F009E68BE403043D0605E6806F0E7
:100470008056B6F1805F7DD100BF00260096404EC9
:10048000366846F480463E4F3E603E46366806F487
:100490008046009600BF00BF3A4E8F0856F82700EE
:1004A0008E07370F0F26BE40B043374EB24202D1FF
:1004B000002624E05EE0354EB24201D101261EE066
:1004C000334EB24201D1022619E0324EB24201D17E
:1004D000032614E0304EB24201D104260FE02F4E25
:1004E000B24201D105260AE02D4EB24201D10626C4
:1004F00005E02C4EB24201D1072600E008268F0706
:100500003F0FBE4030431F4E8F0846F82700264E4F
:100510003068A0435E6806F48036B6F5803F00D1AF
:100520002043214E3060361D3068A0435E6806F4DB
:100530000036B6F5003F00D120431B4E361D30601B
:10054000361D3068A0435E6806F48016B6F5801F3D
:1005500000D12043144E08363060361D3068A04369
:100560005E6806F40016B6F5001F00D120430E4E5B
:100570000C363060491C1029FFF420AFF8BD000094
:1005800044380240083801400000024000040240A4
:1005900000080240000C024000100240001402401B
:1005A00000180240001C0240003C01400148006865
:1005B000000C7047002004E0044840680449B0FB88
:1005C000F1F04FF47A71484370470000001000E0EA
:1005D000007A030A0348006803490978084401497E
:1005E00008607047040000200C0000200146084805
:1005F000006840F08070064A10600020054A506094
:100600001046006840F001001060002070470000B4
:10061000FCED00E0001000E001460846002809DB80
:1006200000F01F0301229A4043099B0003F1E023DD
:10063000C3F8002100BF70472DE9F05F80460D46EA
:100640001646002701F0E6FA074639462A463346A1
:1006500001F00700C0F1070ABAF1040F02D94FF008
:10066000040A01E0C0F1070AD14600F1040ABAF118
:10067000070F02D24FF0000A01E0A0F1030AD446AE
:100680004FF0010A0AFA09FAAAF1010A0AEA020A73
:100690000AFA0CFA4FF0010B0BFA0CFBABF1010B51
:1006A0000BEA030B4AEA0B042146404601F0BAFA72
:1006B000BDE8F09F70B504460D460CB9012070BD31
:1006C0005848006800F00F00A84209D255490D7043
:1006D0000846006800F00F00A84201D00120EEE7B4
:1006E000207800F0020002281DD1207800F00400DC
:1006F000042805D14C48006840F4E0504A4908609D
:10070000207800F00800082805D14748006840F428
:100710006040454908604448006820F0F000A16846
:10072000084341490860207800F00100A8B36068E0
:10073000012807D13C4808380068C0F34040B8B9E8
:100740000120BCE76068022802D06068032807D156
:10075000354808380068C0F3406048B90120AEE76A
:10076000314808380068C0F3400008B90120A6E706
:100770002D48006820F00300616808432A4908609A
:10078000FFF71AFF064609E0FFF716FF801B41F24C
:100790008831884202D9032091E707E022480068A7
:1007A00000F00C006168B0EB810FEDD11D480068CE
:1007B00000F00F00A84209D91A490D7008460068D8
:1007C00000F00F00A84201D0012078E7207800F067
:1007D0000400042807D11448006820F4E050E168C0
:1007E000084311490860207800F00800082808D163
:1007F0000D48006820F46040216940EAC1000A49C0
:10080000086000F03DF808490968C1F30311074A80
:10081000515CC840064908600F20FFF7E7FE002042
:100820004DE70000003C0240083802407E1C0008F2
:100830000000002001480068704700000000002010
:1008400000B5FFF7F7FF04490968C1F38221034AA5
:10085000515CC84000BD0000083802408E1C0008F2
:1008600000B5FFF7E7FF04490968C1F34231034AC5
:10087000515CC84000BD0000083802408E1C0008D2
:100880002DE9F047002400250026A14625480068F0
:1008900000F00C0020B1042805D008283AD105E06A
:1008A000DFF8849039E0DFF8849036E01D48001FBF
:1008B000006800F03F041B48001F006800F480003F
:1008C00078B11A481749091F0968C1F38811A0FBBC
:1008D00001700146224600233846FFF771FC0546A9
:1008E0000EE011480F49091F0968C1F38811A0FBE8
:1008F00001700146224600233846FFF761FC054699
:100900000848001F0068C0F30140401C4600B5FBCA
:10091000F6F902E0DFF8109000BF00BF4846BDE8DE
:10092000F0870000083802400024F40040787D0180
:10093000F8B504460CB90120F8BD207800F001009C
:10094000002874D0F948006800F00C0004280DD08D
:10095000F648006800F00C00082813D1F348001F87
:10096000006800F48000B0F5800F0BD1EF48083824
:100970000068C0F34040002859D06068002856D174
:100980000120D9E700BF6068B0F5803F08D1E74893
:100990000838006840F48030E449083908601EE0F7
:1009A0006068B0F5A02F0DD1E0480838006840F429
:1009B0008020DE49083908600846006840F480302D
:1009C00008600CE0D9480838006820F48030D74926
:1009D000083908600846006820F48020086000BFDD
:1009E000606890B1FFF7E8FD054606E0FFF7E4FD1B
:1009F000401B642801D903209EE7CC4808380068D2
:100A0000C0F340400028F1D011E0FFF7D5FD0546C6
:100A100006E0FFF7D1FD401B642801D903208BE7D6
:100A2000C24808380068C0F340400028F1D120785F
:100A300000F0020002285FD1BC48006800F00C0002
:100A400058B1BA48006800F00C0008281CD1B7481B
:100A5000001F006800F48000B0B9B448083800688E
:100A6000C0F3400020B1E068012801D0012063E715
:100A7000AE480838006820F0F800216940EAC1005B
:100A8000AA490839086037E0E06800B30120A849A6
:100A90000860FFF791FD054606E0FFF78DFD401B5E
:100AA000022801D9032047E7A04808380068C0F3AE
:100AB00040000028F1D09D480838006820F0F80078
:100AC000216940EAC10099490839086014E0002012
:100AD00097490860FFF770FD054606E0FFF76CFDDB
:100AE000401B022801D9032026E7904808380068F7
:100AF000C0F340000028F1D1207800F00800082859
:100B00002CD16069A8B101208A490860FFF754FD23
:100B1000054606E0FFF750FD401B022801D90320DF
:100B20000AE782486C300068C0F340000028F1D02A
:100B300014E000207F490860FFF73EFD054606E00F
:100B4000FFF73AFD401B022801D90320F4E677485D
:100B50006C300068C0F340000028F1D1207800F02C
:100B60000400042870D1002670483830006800F076
:100B7000805090B900BF002000906C483830006869
:100B800040F080506949383108600846006800F03C
:100B90008050009000BF00BF01266748006800F445
:100BA0008070B0B96448006840F4807062490860A1
:100BB000FFF702FD054606E0FFF7FEFC401B02289A
:100BC00001D90320B8E65C48006800F48070002872
:100BD000F2D000BFA068012808D1544868300068EE
:100BE00040F001005149683108601DE0A068052807
:100BF0000DD14E486830006840F004004B49683120
:100C000008600846006840F0010008600CE04748B2
:100C10006830006820F001004449683108600846E7
:100C2000006820F00400086000BFA068A8B1FFF7CA
:100C3000C3FC054609E0FFF7BFFC401B41F28831C9
:100C4000884202D9032077E626E0384868300068F9
:100C5000C0F340000028EED013E0FFF7ADFC0546DE
:100C600008E0FFF7A9FC401B41F28831884201D916
:100C7000032061E62D4868300068C0F3400000287A
:100C8000EFD1012E07D129483830006820F080507C
:100C900026493831086000BFA069B8B3234800680E
:100CA00000F00C0008285ED0A069022846D1002080
:100CB0001F490866FFF780FC054606E0FFF77CFC4D
:100CC000401B022801D9032036E61848083800687E
:100CD000C0F340600028F1D1D4E907010843616AFC
:100CE00040EA81110122A06AC2EB500041EA0041B2
:100CF0002C20005D41EA00600C49091F08600120BA
:100D00000B490866FFF758FC054607E02DE0FFF7A2
:100D100053FC401B022801D903200DE60348083884
:100D20000068C0F340600028F1D01EE0083802409F
:100D300000004742800E47420070004000200C49EE
:100D40000866FFF739FC054606E0FFF735FC401B57
:100D5000022801D90320EFE506480068C0F340608F
:100D60000028F2D101E00120E6E50020E4E50000E2
:100D700000004742003802400146022081F83D0051
:100D800000BF0868006A41F21112104050B90868AB
:100D9000006A9210104028B90868006820F001002D
:100DA0000A68106000BF012081F83D0000207047F4
:100DB0002DE9F04104460D4614B90120BDE8F0814B
:100DC00094F83D0028B9002084F83C00204600F04B
:100DD00046F8022084F83D002068806844F207014C
:100DE000884321688860211D206800F05BFB206833
:100DF000D0F80880206886692068076A286840EA79
:100E0000080840F203308643A969A86840EA012037
:100E1000064340F60C4086434FF2F0008643E969F2
:100E2000E86840EA0120064328690001296A40EA8F
:100E30000130064327F0220727F0880769696868B0
:100E400040EA011007432068C0F8088020688661E6
:100E500020680762012084F83D000020AEE770475B
:100E600030B504460D4615B1042D0CD105E0012224
:100E70000021206800F082FB10E00122042120689C
:100E800000F07CFB0AE001220021206800F076FBE4
:100E900001220421206800F071FB00BF00BF206820
:100EA000006840F0010021680860002030BD70B586
:100EB00004460E46154600BF94F83C00012801D1B7
:100EC000022070BD012084F83C0000BF022084F89D
:100ED0003D0035B1042D09D0082D0CD00C2D14D1B6
:100EE0000EE03146206800F0BBFB0FE03146206881
:100EF00000F0EEFB0AE03146206800F027FC05E038
:100F00003146206800F05EFC00E000BF00BF012019
:100F100084F83D0000BF002084F83C0000BF00BF03
:100F2000CFE710B504460CB9012010BD94F83D0080
:100F300028B9002084F83C00204600F00CF802207C
:100F400084F83D00211D206800F0ACFA012084F8EF
:100F50003D000020E9E7704730B504460D4635B145
:100F6000042D0BD0082D10D00C2D1CD114E02068BE
:100F7000C06820F002002168C86015E02068C068E1
:100F800020F004002168C8600EE02068C06820F0EE
:100F900008002168C86007E02068C06820F01000E1
:100FA0002168C86000E000BF00BF00222946206819
:100FB00000F0E4FA19492068884203D018492068F3
:100FC000884201D1012000E0002090B100BF2068DC
:100FD000006A41F21111084050B92068006A891076
:100FE000084028B92068406C20F40040216848641B
:100FF00000BF00BF2068006A41F21111084050B9DB
:101000002068006A8910084028B92068006820F02C
:1010100001002168086000BF002030BD00000140D1
:101020000004014010B504460CB9012010BDA069B0
:1010300000B100E000BF94F8390028B9002084F81E
:101040003800204600F028F8242084F83900206871
:10105000C06820F400502168C860204600F024FCDD
:101060002068006920F49040216808612068406988
:1010700020F02A00216848612068C06840F40050D0
:101080002168C8600020E063202084F8390084F8DB
:101090003A000020CAE7000010B586B0044600BF41
:1010A000002000902648006840F0100024490860A5
:1010B0000846006800F01000009000BF00BF00BFAD
:1010C000002000901E481438006840F002001C49BF
:1010D000143908600846006800F00200009000BF64
:1010E00000BF00BF002000900846006840F00200EA
:1010F00008600846006800F00200009000BF00BFD2
:10110000802001900220029001200390032004908F
:101110000720059001A90B48FFF748F940200190EE
:101120000720059001A90748FFF740F90122002197
:101130002520FFF781FA2520FFF76EFA06B010BDD3
:10114000443802400004024000BFFEE700BFFEE753
:10115000704770477047000070B551480068C0681C
:10116000C0F3400000287CD06FF002004C490968B1
:1011700008614C480078401C4A49087008460078CD
:1011800002286FD10020087047480078012804D059
:10119000022869D0032871D12EE0434841684348B2
:1011A0008068401E814208D302203F4908704048B1
:1011B0000068401E3E49086060E03C481C303C49E5
:1011C000096800EB8100D0ED000A3A4890ED000A72
:1011D000B8EE401A81EE200AF0EE000A80EE201AE6
:1011E000BCEEC10A10EE100A2F4908813048006891
:1011F000401C2F49086041E02B4841682B4800699A
:10120000401E81420ED300212548FFF7A5FE2A4942
:1012100026481C30FFF70CF80020254908602249B9
:1012200008702BE021481C302149096800EB81003F
:10123000D0ED000A1F4890ED000AB8EE401A81EE8A
:10124000200AF0EE000A80EE201ABCEEC10A10EE71
:10125000100A1549088116480068401E14490860A4
:101260000CE01CE010E0FFE70F4840680F49C96838
:10127000884202D303200C49087000BF00BF0A480F
:101280004068401C0849486005480068456A0648AF
:101290000089284484B202480068446300BF70BDDE
:1012A000E0E501201000002094E401201800002057
:1012B000140000200000002060E4010000B587B0A9
:1012C00000BF002001902348006840F02000214921
:1012D00008600846006800F02000019000BF00BFD1
:1012E00000BF002001900846006840F0010008603F
:1012F0000846006800F00100019000BF00BF00BF79
:10130000002001900846006840F00100086008468F
:10131000006800F00100019000BF00BF8815029036
:101320000120039004900220059002A90A48FFF7CB
:101330003DF802A90948FFF739F80220039005900B
:10134000069001200490029002A90448FFF72EF8AD
:1013500007B000BD303802400014024000000240D7
:1013600010B5FFF7ABFF00F057FA00F093FA10BD8D
:1013700010B5FFF72FF910BD00B593B000BF0020E6
:1013800001902A48006840F08050284908600846CB
:10139000006800F08050019000BF00BF00BF002037
:1013A00001902348006840F48040214908600846C5
:1013B000006800F48040019000BF00BF012002904F
:1013C00000040390022008904105099119210A9117
:1013D0004FF4A8710B9102210C9107210D9102A8E5
:1013E000FFF7A6FA08B100BFFEE70F200E9002201B
:1013F0000F90002010904FF4A05011904FF48050A7
:10140000129005210EA8FFF755F908B100BFFEE7BD
:10141000FFF7CCF841F20101884205D10548006888
:1014200040F480700349086013B000BD40380240AA
:1014300000700040003C02401448006840F4700016
:10144000124908601248006840F001001049086025
:1014500000200F49083108600D4800680D49084018
:101460000B4908600C48091D0860081F006820F43B
:101470008020091F0860002005490C3108604FF0EA
:1014800000600249803908607047000088ED00E084
:1014900000380240FFFFF6FE1030002410B5FFF7C1
:1014A0005BFE10BD10B50268294B98420ED0B0F11A
:1014B000804F0BD0274B984208D0274B984205D03D
:1014C000264B984202D0264B984203D122F070025C
:1014D0004B681A431E4B984220D0B0F1804F1DD06C
:1014E0001C4B98421AD01C4B984217D01B4B984269
:1014F00014D01B4B984211D01A4B98420ED01A4B65
:1015000098420BD0194B984208D0194B984205D0FD
:10151000184B984202D0184B984203D122F44072E3
:10152000CB681A4322F080034C6943EA040202604C
:101530008B68C3620B688362054B984202D0084BEC
:10154000984201D10B6903630123436110BD000080
:10155000000001400004004000080040000C004072
:1015600000040140004001400044014000480140A7
:1015700000180040001C00400020004030B501F081
:101580001F05012404FA05F3046A9C430462046AFB
:1015900001F01F0502FA05F52C43046230BD00007E
:1015A00000B58BB000BF002001902A48006840F0D1
:1015B0000200284908600846006800F00200019017
:1015C00000BF00BF24482549086000204860002172
:1015D000224881604FF6FF71C16000210161816185
:1015E0000320029002200390012004900020059027
:1015F0000690079001200890002009900A9002A907
:101600001648FFF7D5FB0020144909684862801E80
:1016100012490968086111480068C06840F001007B
:101620000E490968C8600D480068006840F0040071
:101630000A4909680860012205211D20FEF7FCFF08
:101640001D20FEF7E9FF3C210448FFF709FC0BB021
:1016500000BD0000403802400004004020E60120A8
:1016600030B5056A25F001050562026A43688469A0
:1016700024F0700424F003040D682C4322F00202CD
:101680008D682A43104DA84200D103E00F4DA842B7
:1016900006D100BF22F00802CD682A4322F00402DE
:1016A000094DA84202D0094DA84207D123F4807306
:1016B00023F400734D692B438D692B434360846190
:1016C0004D684563026230BD0000014000040140E6
:1016D00030B5056A25F010050562026A4368846921
:1016E00024F4E04424F440740D6844EA052422F014
:1016F00020028D6842EA0512124DA84200D103E093
:10170000114DA84207D100BF22F08002CD6842EA05
:10171000051222F040020B4DA84202D00A4DA84209
:1017200009D123F4806323F400634D6943EA850300
:101730008D6943EA8503436084614D688563026275
:1017400030BD0000000001400004014030B5056AD2
:1017500025F480750562026A4368C46924F0700448
:1017600024F003040D682C4322F400728D6842EAD1
:101770000522124DA84200D103E0114DA84207D125
:1017800000BF22F40062CD6842EA052222F48062A2
:101790000A4DA84202D00A4DA84209D123F4805331
:1017A00023F400534D6943EA05138D6943EA051399
:1017B0004360C4614D68C563026230BD00000140F2
:1017C0000004014030B5056A25F480550562036ABE
:1017D0004468C26922F4E04222F440720D6842EA91
:1017E000052223F400538D6843EA0533084DA842CF
:1017F00002D0084DA84204D124F480444D6944EA43
:1018000085144460C2614D680564036230BD000008
:10181000000001400004014000B589B000BF002075
:1018200001901948006840F0080017490860084610
:10183000006800F00800019000BF00BF1348144981
:1018400008604FF6FF711248C160012010494860DE
:1018500000210F48816001614161FFF762FB302088
:10186000029000200390049008200590002006902C
:1018700007900890002202A90548FFF718FB0448CA
:10188000FFF77AFA09B000BD40380240000C004072
:10189000E0E5012010B5002211463220FEF7CCFE13
:1018A0003220FEF7B9FE10BD2DE9F0410446206854
:1018B000006920F44050E16808432168086121690B
:1018C000A068084361690843E16940EA01052068AE
:1018D000C06849F20C61884328432168C8602068C9
:1018E000406920F44070A169084321684861E069BB
:1018F000B0F5004F7ED1C4492068884203D0C34967
:10190000206888425DD1FEF7ABFF00EBC00101EB20
:10191000001061684900B0FBF1F06421B0FBF1F008
:101920000601FEF79DFF00EBC00101EB00106168AE
:101930004900B0FBF1F7FEF793FF00EBC00101EBAC
:10194000001061684900B0FBF1F06421B0FBF1F0D8
:1019500000EBC00101EB0010A7EB8000322101EB8E
:10196000C0006421B0FBF1F000F0F80006EB400687
:10197000FEF776FF00EBC00101EB00106168490043
:10198000B0FBF1F7FEF76CFF00EBC00101EB0010BC
:1019900061684900B0FBF1F06421B0FBF1F000EBAD
:1019A000C00101EB0010A7EB8000322101EBC00069
:1019B0006421B0FBF1F000F007003044216888603A
:1019C00020E1FEF73DFF00EBC00101EB0010616874
:1019D0004900B0FBF1F06421B0FBF1F00601FEF725
:1019E0002FFF00EBC00101EB001061684900B0FB64
:1019F000F1F700E045E0FEF723FF00EBC00101EB4B
:101A0000001061684900B0FBF1F06421B0FBF1F017
:101A100000EBC00101EB0010A7EB8000322101EBCD
:101A2000C0006421B0FBF1F000F0F80006EB4006C6
:101A3000FEF706FF00EBC00101EB001061684900F2
:101A4000B0FBF1F7FEF7FCFE00EBC00101EB00106C
:101A500061684900B0FBF1F06421B0FBF1F000EBEC
:101A6000C00101EB0010A7EB8000322101EBC000A8
:101A70006421B0FBF1F000F0070030442168886079
:101A8000C0E061492068884203D0604920688842EC
:101A90005CD1FEF7E5FE00EBC00101EB00106168D0
:101AA0008900B0FBF1F6FEF7DBFE00EBC00101EBB5
:101AB000001061688900B0FBF1F06421B0FBF1F027
:101AC00000EBC00101EB0010A6EB8000322101EB1E
:101AD00000106421B0FBF1F000F0F006FEF7C0FE4C
:101AE00000EBC00101EB001061688900B0FBF1F070
:101AF0006421B0FBF1F006EB0016FEF7B1FE00EB3F
:101B0000C00101EB001061688900B0FBF1F7FEF73E
:101B1000A7FE00EBC00101EB001061688900B0FB7B
:101B2000F1F06421B0FBF1F000EBC00101EB00101B
:101B3000A7EB8000322101EB00106421B0FBF1F033
:101B400000F00F003044216888605BE0FEF778FE0B
:101B500000EBC00101EB001061688900B0FBF1F6F9
:101B6000FEF76EFE00EBC00101EB0010616889001A
:101B7000B0FBF1F06421B0FBF1F000EBC00101EB30
:101B80000010A6EB8000322101EB00106421B0FBB5
:101B9000F1F000F0F006FEF753FE00EBC00101EBA0
:101BA000001061688900B0FBF1F06421B0FBF1F036
:101BB00006EB0016FEF744FE00EBC00101EB00103F
:101BC00061688900B0FBF1F7FEF73AFE00EBC00157
:101BD00001EB001061688900B0FBF1F06421B0FBFB
:101BE000F1F000EBC00101EB0010A7EB8000322107
:101BF00001EB00106421B0FBF1F000F00F00304465
:101C000021688860BDE8F0810010014000140140A7
:101C100000BFFEE702480068C0F3022070470000E2
:101C20000CED00E010B5002804DB0A07130E054A8E
:101C3000135406E00A07140E034A00F00F031B1F9B
:101C4000D45410BD00E400E018ED00E002E008C844
:101C5000121F08C1002AFAD170477047002001E026
:101C600001C1121F002AFBD17047FFF785FBFEF769
:101C70001FFBFEF795FBFFF773FB00BFFEE70000BD
:101C8000000000000000010203040607080900002C
:101C90000000010203040000B81C0008000000203E
:101CA000180000004C1C0008D01C00081800002080
:101CB00048EA01005C1C00080024F4000000000059
:101CC0001000000001000000000000000000000003
:040000050800018965
:00000001FF
